:020000040800F2
:1000000000280020951400083D1200084312000843
:10001000491200084F1200085512000800000000A5
:100020000000000000000000000000005B1200085B
:100030006712000800000000731200087F12000819
:10004000DD140008DD140008DD140008DD140008CC
:10005000DD140008DD140008DD140008DD140008BC
:10006000DD140008DD140008DD140008DD140008AC
:10007000DD140008DD140008DD140008DD1400089C
:10008000DD140008DD140008DD140008DD1400088C
:10009000DD140008DD140008DD140008DD1400087C
:1000A000DD140008DD140008DD140008DD1400086C
:1000B0008D120008DD14000800000000DD140008A7
:1000C000DD1400080000000000000000DD1400083E
:1000D00000000000DD140008DD140008000000002E
:1000E000DD140008DD140008DD1400080000000025
:1000F0000000000000000000000000000000000000
:0C01000000000000000000005FF808F1A3
:10010C0010B5054C237833B9044B13B10448AFF345
:10011C0000800123237010BD480000200000000067
:10012C000C2B000808B5034B1BB103490348AFF374
:10013C00008008BD000000004C0000200C2B0008C3
:10014C0080B483B000AF7860094A7B6852F82330E2
:10015C00012B06D1064A7B68002142F823100123AB
:10016C0000E0002318460C37BD4680BC704700BF2A
:10017C006400002080B582B000AF00237B608CE06F
:10018C004A4A7B6852F8232049497B6841F823206E
:10019C00484A7B6852F8232044497B6841F8232065
:1001AC007B68002B0BD14FF48071434801F07CFC31
:1001BC00034619463F4A7B6842F823101CE07B68D3
:1001CC00012B0BD14FF400713B4801F06DFC034641
:1001DC001946384A7B6842F823100DE07B68022BE5
:1001EC000AD14FF48061344801F05EFC0346194695
:1001FC00304A7B6842F823102E4A7B6852F8232041
:10020C002A497B6851F823309A4243D1274A7B68AC
:10021C0052F8232026497B6851F823309A4239D171
:10022C00244A7B6852F8232024497B6851F82330F8
:10023C009A4217D01F4A7B6852F823201F497B68CB
:10024C0041F823201B4A7B6852F82330002B21D124
:10025C001B4B4FF4FA721A601A4A7B68012142F860
:10026C00231017E0164B1B68013B154A1360144B07
:10027C001B68002B0ED1124B4FF4FA721A600D4A08
:10028C007B6852F82330002B04D10E4A7B68012185
:10029C0042F823107B6801337B607B68022B7FF76D
:1002AC006FAF00BF00BF0837BD4680BD10000020F7
:1002BC001C00002004000020000C0140280000203D
:1002CC00000000206400002080B400AF0C4B1B68C1
:1002DC0001330B4A13600A4B1B68032B0CDD094BD3
:1002EC001B68013B074A1360074B1B68013B064A1E
:1002FC001360034B00221A6000BFBD4680BC7047E0
:10030C008C000020900000209400002080B500AFED
:10031C007C4B1B68042B00F2EA8001A252F823F0FC
:10032C004103000885030008E503000847040008A2
:10033C0099040008734B01221A60734B1B68734AB3
:10034C001360734B1B68734A1360734B1B68734ABF
:10035C0013606D4B1B68724A13606D4B1B68714ABE
:10036C0013606F4B1B68184600F0D2FB6D4B1B687B
:10037C00184600F001FCC3E000F092FF01F008F811
:10038C00FFF7A2FF674B1B68002B06D15D4B0222C7
:10039C001A60614B1B68634A1360614B1B681846FB
:1003AC0000F0B6FB5F4B1B68184600F0E5FB002025
:1003BC00FFF7C6FE0346002B00F09B80514B0A2230
:1003CC001A6000F023FB01F02BF8574B1B68194601
:1003DC00092000F0B9FE8CE000F062FF00F0C0FFD5
:1003EC00FFF772FF4E4B1B68002B03D04D4B1B6865
:1003FC00002B0AD1434B03221A60454B1B68484A19
:10040C001360414B1B68474A1360454B1B681846E9
:10041C0000F07EFB434B1B68184600F0ADFB002040
:10042C00FFF78EFE0346002B65D0364B0A221A606E
:10043C0000F0ECFA00F0F4FF5DE000F061FF00F07A
:10044C0077FFFFF741FF364B1B68002B06D12D4B76
:10045C0004221A60304B1B68314A1360304B1B6806
:10046C00184600F055FB2F4B1B68184600F084FB18
:10047C000020FFF765FE0346002B3ED0214B0A22DD
:10048C001A6000F0C3FA00F0CBFF36E000F020FF5A
:10049C0000F04EFFFFF718FF214B1B68002B03D019
:1004AC00204B1B68002B0AD1164B01221A60164BED
:1004BC001B681B4A1360164B1B681A4A1360184BB7
:1004CC001B68184600F024FB164B1B68184600F0FE
:1004DC0053FB0020FFF734FE0346002B0FD0094BD3
:1004EC000A221A6000F092FA00F09AFF07E000BFAF
:1004FC0006E000BF04E000BF02E000BF00E000BF68
:10050C0000BF80BD7000002074000020800000201F
:10051C0078000020840000207C000020880000204F
:10052C0090000020940000203400002080B500AF23
:10053C00434B1B680C2B54D00C2B77DC0A2B02D0B2
:10054C000B2B27D072E03F4B1B681946022000F0A2
:10055C0025F90020FFF7F4FD0346002B04D0384B9F
:10056C000B221A6000F05CFF0120FFF7E9FD034647
:10057C00002B5DD0324B14221A60334B1B680133B5
:10058C00314A1360304B1B68632B51DD2E4B01221B
:10059C001A604DE02D4B1B681946032000F0FEF845
:1005AC000020FFF7CDFD0346002B04D0244B0C227A
:1005BC001A6000F035FF0120FFF7C2FD0346002B47
:1005CC0038D01F4B15221A60214B1B680133204A6F
:1005DC0013601F4B1B68632B2CDD1D4B01221A6013
:1005EC0028E01C4B1B681946042000F0D7F80020AB
:1005FC00FFF7A6FD0346002B02D0114B00221A6018
:10060C000120FFF79DFD0346002B15D00C4B162245
:10061C001A60114B1B6801330F4A13600E4B1B6899
:10062C00632B09DD0C4B01221A6005E000BF04E0CE
:10063C0000BF02E000BF00E000BF00BF80BD00BFF4
:10064C007000002074000020800000207800002042
:10065C00840000207C0000208800002080B500AFC2
:10066C00474B1B68162B58D0162B7FDC142B02D053
:10067C00152B29D07AE0434B1B681946022000F059
:10068C008DF80020FFF75CFD0120FFF759FD0346B4
:10069C00002B0BD03B4B1B6801333A4A1360394B90
:1006AC001B68632B02DD374B01221A600220FFF717
:1006BC0047FD0346002B5BD0324B1B68324A13605C
:1006CC002F4B0A221A6053E00020FFF739FD2F4B05
:1006DC001B681946032000F061F80120FFF730FD7C
:1006EC000346002B0BD0294B1B680133274A1360A0
:1006FC00264B1B68632B02DD244B01221A6002205F
:10070C00FFF71EFD0346002B34D0204B1B68204AFC
:10071C0013601B4B0B221A602CE01E4B1B681946F6
:10072C00042000F03BF80020FFF70AFD0120FFF742
:10073C0007FD0346002B0BD0164B1B680133154AE3
:10074C001360144B1B68632B02DD124B01221A60E1
:10075C000220FFF7F5FC0346002B0DD00D4B1B6858
:10076C000D4A1360064B0C221A6005E000BF04E032
:10077C0000BF02E000BF00E000BF00BF80BD00BFB3
:10078C0070000020800000207400002084000020F5
:10079C0078000020880000207C00002080B582B00A
:1007AC0000AF78603960164B1B680133144A136034
:1007BC00134B1B68032B02DD114B00221A60104BEC
:1007CC001B6803F00103002B10D17B68022B02D1B4
:1007DC0000F0F6FD0AE07B68032B02D100F000FE6E
:1007EC0004E07B68042B01D100F00AFE786800F06D
:1007FC008FF9386800F0C0F900BF0837BD4680BDDE
:10080C008C00002080B58EB000AF78607B68DB1068
:10081C0003F001037B637B689B1003F001033B63D4
:10082C007B685B1003F00103FB627B6803F0010340
:10083C00BB62FB6A002B0ED17B6B002B0BD13B6B8D
:10084C00002B02D1BB6A002B05D03B6B002B04D0D4
:10085C00BB6A002B01D0012300E000237B623B6BC1
:10086C00002B0BD0FB6A002B02D0BB6A002B05D1EE
:10087C00FB6A002B04D1BB6A002B01D1012300E0E1
:10088C0000233B62FB6A002B05D03B6B002B02D193
:10089C00BB6A002B01D0012300E00023FB617B6BC2
:1008AC00002B1AD13B6B002B02D1BB6A002B14D04E
:1008BC003B6B002B02D1FB6A002B0ED1FB6A002B89
:1008CC0002D0BB6A002B08D03B6B002B07D0FB6A15
:1008DC00002B04D1BB6A002B01D0012300E00023C4
:1008EC00BB613B6B002B02D1BB6A002B05D0FB6AB2
:1008FC00002B04D0BB6A002B01D1012300E00023A4
:10090C007B617B6B002B11D13B6B002B02D0BB6A44
:10091C00002B0BD0FB6A002B02D1BB6A002B05D03D
:10092C003B6B002B04D0FB6A002B01D1012300E0B0
:10093C0000233B617B6B002B11D13B6B002B02D155
:10094C00FB6A002B0BD13B6B002B02D0BB6A002B3C
:10095C0005D03B6B002B04D0FB6A002B01D101238B
:10096C0000E00023FB607B6A002B0CBF01230023FB
:10097C00DBB21A460121244801F0ADF83B6A002B8A
:10098C000CBF01230023DBB21A4602211E4801F0E2
:10099C00A2F8FB69002B0CBF01230023DBB21A4623
:1009AC000421194801F097F8BB69002B0CBF0123F7
:1009BC000023DBB21A460821134801F08CF87B693E
:1009CC00002B0CBF01230023DBB21A4610210E486A
:1009DC0001F081F83B69002B0CBF01230023DBB233
:1009EC001A462021084801F076F8FB68002B0CBF52
:1009FC0001230023DBB21A464021034801F06BF8B7
:100A0C0000BF3837BD4680BD000C014080B500AF3B
:100A1C0001220221094801F05EF801220421074855
:100A2C0001F059F801220821044801F054F8012280
:100A3C001021024801F04FF800BF80BD00080140B2
:100A4C0080B500AF00220221094801F044F80122D0
:100A5C000421074801F03FF801220821044801F065
:100A6C003AF801221021024801F035F800BF80BD90
:100A7C000008014080B500AF01220221094801F0B5
:100A8C002AF800220421074801F025F80122082148
:100A9C00044801F020F801221021024801F01BF853
:100AAC0000BF80BD0008014080B500AF01220221CB
:100ABC00094801F010F801220421074801F00BF855
:100ACC0000220821044801F006F8012210210248F6
:100ADC0001F001F800BF80BD0008014080B500AFF7
:100AEC0001220221094800F0F6FF012204210748E7
:100AFC0000F0F1FF01220821044800F0ECFF002275
:100B0C001021024800F0E7FF00BF80BD0008014043
:100B1C0080B584B000AF78607B68154A82FB031205
:100B2C009210DB17D31AFB607A68114B83FB02130C
:100B3C009910D317C91A0B469B000B445B00D31AB0
:100B4C00BB600C4B1B68002B04D1F868FFF75AFEF6
:100B5C00FFF776FF074B1B68012B04D1B868FFF732
:100B6C0051FEFFF787FF00BF1037BD4680BD00BFA9
:100B7C00676666668C00002080B584B000AF786034
:100B8C007B68154A82FB03129210DB17D31AFB60A9
:100B9C007A68114B83FB02139910D317C91A0B46B1
:100BAC009B000B445B00D31ABB600C4B1B68022BE5
:100BBC0004D1F868FFF726FEFFF776FF074B1B689A
:100BCC00032B04D1B868FFF71DFEFFF787FF00BFAA
:100BDC001037BD4680BD00BF676666668C0000207E
:100BEC0080B500AF00F076FC00F048F800F0CEF8CD
:100BFC0000F080F8174801F0CBFB174B00221A606D
:100C0C00164B05221A60164B03221A60154B022252
:100C1C001A6000F02EF94FF4FA724FF4FA71124880
:100C2C0000F03CF9FA22FA21104800F037F9FA22C8
:100C3C00FA210F4800F032F9FA22FA210D4800F09F
:100C4C002DF90A220A210C4800F028F900F0EEF9DF
:100C5C00FCE700BF9800002070000020740000200A
:100C6C00780000207C000020811400081903000883
:100C7C0039050008690600088101000880B590B0AC
:100C8C0000AF07F1180328220021184601F030FFAD
:100C9C003B1D00221A605A609A60DA601A610223C6
:100CAC00BB610123BB621023FB6200237B6307F152
:100CBC001803184600F040FF0346002B01D000F04B
:100CCC00D3F80F237B600023BB600023FB60002361
:100CDC003B6100237B613B1D0021184601F0ACF900
:100CEC000346002B01D000F0BFF800BF4037BD46D3
:100CFC0080BD000080B586B000AF07F1080300226C
:100D0C001A605A609A60DA603B4600221A605A6098
:100D1C001D4B4FF080421A601B4B41F63F725A60DC
:100D2C00194B00229A60184B0922DA60164B0022EC
:100D3C001A61154B00229A61134801F0D9FA034647
:100D4C00002B01D000F090F84FF48053BB6007F1FA
:100D5C00080319460C4801F057FC0346002B01D040
:100D6C0000F082F800233B6000237B603B46194671
:100D7C00054801F02FFE0346002B01D000F074F85B
:100D8C0000BF1837BD4680BD9800002080B586B0E6
:100D9C0000AF07F1080300221A605A609A60DA600B
:100DAC00294B9B69284A43F004039361264B9B69AA
:100DBC0003F004037B607B68234B9B69224A43F05E
:100DCC0008039361204B9B6903F008033B603B686D
:100DDC00002241F6BE711D4800F07DFE002248F253
:100DEC007F011B4800F077FE41F6BE73BB60012308
:100DFC00FB6000233B6102237B6107F1080319466A
:100E0C00124800F0D7FC48F27F03BB600123FB6063
:100E1C0000233B6102237B6107F1080319460C4850
:100E2C0000F0C8FC4FF4E063BB600023FB600123BF
:100E3C003B6107F108031946054800F0BBFC00BFF5
:100E4C001837BD4680BD00BF0010024000080140AD
:100E5C00000C014080B582B000AF786000F076F8ED
:100E6C0000BF0837BD4680BD80B400AF72B600BF6E
:100E7C00FEE780B582B000AF0023FB7106E0FB7982
:100E8C00184600F01FF9FB790133FB71FB79272B16
:100E9C00F5D900BF00BF0837BD4680BD80B487B010
:100EAC0000AFF860B9607A600023FB7502E0FB7D4F
:100EBC000133FB75FA7D234913469B0013449B00B9
:100ECC000B441B68002B02D0FB7D272BEFD9FB7D3D
:100EDC00282B01D128232FE0FA7D1A4913469B00B9
:100EEC0013449B000B44FA681A60FA7DBB681649E0
:100EFC00A1FB0313D908134813469B0013449B0012
:100F0C00034404331960FA7D7B680F49A1FB03137A
:100F1C00D9080C4813469B0013449B000344083328
:100F2C001960FA7D074913469B0013449B000B4440
:100F3C000C3300221A70FB7D18461C37BD4680BC52
:100F4C00704700BFE0000020CDCCCCCC80B483B087
:100F5C0000AF0023FB715DE0FA79334913469B0027
:100F6C0013449B000B441B68002B50D0FA792E497C
:100F7C0013469B0013449B000B4404331B68002B4B
:100F8C0032D1FA79284913469B0013449B000B4439
:100F9C000C331B78FA790133D8B2234913469B00E2
:100FAC0013449B000B440C3302461A70FA791E4909
:100FBC0013469B0013449B000B4408331B68002B07
:100FCC0025D0F979FA7918480B469B000B449B0005
:100FDC00034408331968144813469B0013449B00C0
:100FEC0003440433196012E0FA790F4913469B004D
:100FFC0013449B000B4404331B68FA79591E0A48AE
:10100C0013469B0013449B00034404331960FB7983
:10101C000133FB71FB79272B9ED900BF00BF0C3726
:10102C00BD4680BC704700BFE000002080B582B098
:10103C0000AF0023FB713AE0FA79214913469B007B
:10104C0013449B000B440C331B78002B2CD0FA79E7
:10105C001B4913469B0013449B000B441B68984789
:10106C00FA79174913469B0013449B000B440C332D
:10107C001B78FA79013BD8B2114913469B001344F3
:10108C009B000B440C3302461A70FA790C49134638
:10109C009B0013449B000B4408331B68002B03D1AB
:1010AC00FB79184600F00EF8FB790133FB71FB79E4
:1010BC00272BC1D900BF00BF0837BD4680BD00BF7C
:1010CC00E000002080B485B000AF78601D497A68DC
:1010DC0013469B0013449B000B441B68002B02D14E
:1010EC000023FB7301E00123FB7316497A68134656
:1010FC009B0013449B000B4400221A6011497A6830
:10110C0013469B0013449B000B44043300221A60CB
:10111C000C497A6813469B0013449B000B4408331C
:10112C0000221A6007497A6813469B0013449B00FF
:10113C000B440C3300221A70FB7B18461437BD4647
:10114C0080BC7047E000002080B483B000AF7860B2
:10115C003960094B1B683A6892FBF3F207497B68CC
:10116C0041F82320064A7B68002142F8231000BF77
:10117C000C37BD4680BC7047380000202804002086
:10118C000004002080B485B000AF154B9B69144A55
:10119C0043F001039361124B9B6903F00103BB60A5
:1011AC00BB680F4BDB690E4A43F08053D3610C4B89
:1011BC00DB6903F080537B607B680A4B5B68FB60E8
:1011CC00FB6823F0E063FB60FB6843F08063FB602B
:1011DC00044AFB68536000BF1437BD4680BC70479F
:1011EC00001002400000014080B584B000AF786070
:1011FC007B681B68B3F1804F13D10C4BDB690B4A36
:10120C0043F00103D361094BDB6903F00103FB607D
:10121C00FB68002200211C2000F095FA1C2000F035
:10122C00AEFA00BF1037BD4680BD00BF00100240B3
:10123C0080B400AFFEE780B400AFFEE780B400AF2F
:10124C00FEE780B400AFFEE780B400AFFEE780B4E9
:10125C0000AF00BFBD4680BC704780B400AF00BF7C
:10126C00BD4680BC704780B400AF00BFBD4680BC9B
:10127C00704780B500AF00F073F900BF80BD00006F
:10128C0080B500AF024801F0CFF800BF80BD00BFB1
:10129C009800002080B400AF00BFBD4680BC7047F2
:1012AC0080B500AF01224FF48061084800F013FCB8
:1012BC0000224FF40061054800F00DFC00224FF4B1
:1012CC008051024800F007FC00BF80BD00080140BF
:1012DC0080B500AF00224FF48061084800F0FBFBA2
:1012EC0001224FF40061054800F0F5FB00224FF499
:1012FC008051024800F0EFFB00BF80BD00080140A8
:10130C0080B500AF00224FF48061084800F0E3FB89
:10131C0000224FF40061054800F0DDFB01224FF480
:10132C008051024800F0D7FB00BF80BD000801408F
:10133C0080B500AF01228021084800F0CCFB0022D0
:10134C004FF48071054800F0C6FB00224FF4007189
:10135C00024800F0C0FB00BF80BD00BF0008014088
:10136C0080B500AF00228021084800F0B4FB0122B8
:10137C004FF48071054800F0AEFB00224FF4007171
:10138C00024800F0A8FB00BF80BD00BF0008014070
:10139C0080B500AF00228021084800F09CFB0022A1
:1013AC004FF48071054800F096FB01224FF4007158
:1013BC00024800F090FB00BF80BD00BF0008014058
:1013CC0080B500AF4FF48061044800F09CFB802195
:1013DC00024800F098FB00BF80BD00BF0008014030
:1013EC0080B500AF4FF48051044800F08CFB4FF4F3
:1013FC000071024800F087FB00BF80BD000801406F
:10140C0080B500AF4FF40061044800F07CFB4FF452
:10141C008071024800F077FB00BF80BD00080140DE
:10142C0080B500AF00224FF40061114800F053FB6F
:10143C0000224FF480710E4800F04DFB00224FF457
:10144C0080610B4800F047FB00228021084800F027
:10145C0042FB00224FF48051054800F03CFB002277
:10146C004FF40071024800F036FB00BF80BD00BF96
:10147C000008014080B500AF2021024800F043FB7A
:10148C0000BF80BD00080140FFF704FF0B480C496A
:10149C000C4A002302E0D458C4500433C4188C42C4
:1014AC00F9D3094A094C002301E013600432A2422B
:1014BC00FBD301F0F9FAFFF793FB70470000002013
:1014CC0048000020502B0008480000205404002045
:1014DC00FEE7000080B500AF084B1B68074A43F0DD
:1014EC0010031360032000F023F90F2000F008F81C
:1014FC00FFF748FE0023184680BD00BF00200240C5
:10150C0080B582B000AF7860124B1A68124B1B7812
:10151C0019464FF47A73B3FBF1F3B2FBF3F31846AD
:10152C0000F03BF90346002B01D001230EE07B6851
:10153C000F2B0AD8002279684FF0FF3000F003F926
:10154C00064A7B681360002300E001231846083725
:10155C00BD4680BD3C00002044000020400000201F
:10156C0080B400AF054B1B781A46054B1B6813441F
:10157C00034A136000BFBD4680BC70474400002086
:10158C005004002080B400AF024B1B681846BD46C7
:10159C0080BC70475004002080B485B000AF7860E8
:1015AC007B6803F00703FB600C4BDB68BB60BA681D
:1015BC004FF6FF031340BB60FB681A02BB68134372
:1015CC0043F0BF6343F40033BB60044ABB68D36091
:1015DC0000BF1437BD4680BC704700BF00ED00E073
:1015EC0080B400AF044BDB681B0A03F007031846FA
:1015FC00BD4680BC704700BF00ED00E080B483B0F6
:10160C0000AF0346FB7197F90730002B0BDBFB791E
:10161C0003F01F02064997F907305B09012000FA15
:10162C0002F241F8232000BF0C37BD4680BC704746
:10163C0000E100E080B483B000AF03463960FB7179
:10164C0097F90730002B0ADB3B68DAB20C4997F9A3
:10165C0007301201D2B20B4483F800230AE03B6836
:10166C00DAB20849FB7903F00F03043B1201D2B242
:10167C000B441A7600BF0C37BD4680BC704700BFC8
:10168C0000E100E000ED00E080B489B000AFF8604C
:10169C00B9607A60FB6803F00703FB61FB69C3F177
:1016AC000703042B28BF0423BB61FB690433062BFF
:1016BC0002D9FB69033B00E000237B614FF0FF3252
:1016CC00BB6902FA03F3DA43BB681A407B699A40A0
:1016DC004FF0FF317B6901FA03F3D9437B680B4070
:1016EC00134318462437BD4680BC704780B582B082
:1016FC0000AF78607B68013BB3F1807F01D301239D
:10170C000FE00A4A7B68013B53600F214FF0FF301A
:10171C00FFF790FF054B00229A60044B07221A60DA
:10172C00002318460837BD4680BD00BF10E000E01E
:10173C0080B582B000AF78607868FFF72DFF00BFEE
:10174C000837BD4680BD80B586B000AF0346B96092
:10175C007A60FB7300237B61FFF742FF78617A6844
:10176C00B9687869FFF790FF024697F90F30114678
:10177C001846FFF75FFF00BF1837BD4680BD80B528
:10178C0082B000AF0346FB7197F907301846FFF79C
:10179C0035FF00BF0837BD4680BD80B582B000AFB5
:1017AC0078607868FFF7A2FF034618460837BD46F5
:1017BC0080BD000080B48BB000AF7860396000232E
:1017CC007B6200233B6248E101227B6A02FA03F34D
:1017DC00FB613B681B68FA691340BB61BA69FB6922
:1017EC009A4240F037813B685B68A34A93425ED0D3
:1017FC00A14A934275D8A14A934258D09F4A93422A
:10180C006FD89F4A934252D09D4A934269D89D4AC1
:10181C0093424CD09B4A934263D89B4A934246D006
:10182C00994A93425DD8122B2AD8122B59D801A26F
:10183C0052F823F0BB18000895180008A7180008E8
:10184C00E9180008EF180008EF180008EF18000856
:10185C00EF180008EF180008EF180008EF18000840
:10186C00EF180008EF180008EF180008EF18000830
:10187C00EF180008EF1800089D180008B1180008B0
:10188C00824A934213D02CE03B68DB683B6229E030
:10189C003B68DB6804333B6224E03B68DB6808335D
:1018AC003B621FE03B68DB680C333B621AE03B6831
:1018BC009B68002B02D104233B6213E03B689B68BE
:1018CC00012B05D108233B627B68FA691A6109E098
:1018DC0008233B627B68FA695A6103E000233B6290
:1018EC0000E000BFBB69FF2B01D87B6801E07B687F
:1018FC0004337B61BB69FF2B02D87B6A9B0002E03F
:10190C007B6A083B9B003B617B691A680F213B6932
:10191C0001FA03F3DB431A40396A3B6901FA03F31A
:10192C001A437B691A603B685B6803F08053002B99
:10193C0000F09080564B9B69554A43F0010393612C
:10194C00534B9B6903F00103BB60BB68514A7B6A34
:10195C009B08023352F82330FB607B6A03F00303CD
:10196C009B000F2202FA03F3DB43FA681340FB607F
:10197C007B68494A93420DD07B68484A934207D012
:10198C007B68474A934201D1022304E0032302E01F
:10199C00012300E000237A6A02F0030292009340D4
:1019AC00FA681343FB603B497B6A9B080233FA6875
:1019BC0041F823203B685B6803F48013002B06D0AE
:1019CC00384B9A683749BB6913438B6006E0354B3B
:1019DC009A68BB69DB43334913408B603B685B6897
:1019EC0003F40013002B06D02E4BDA682D49BB698B
:1019FC001343CB6006E02B4BDA68BB69DB43294908
:101A0C001340CB603B685B6803F40033002B06D0BB
:101A1C00244B5A682349BB6913434B6006E0214BA6
:101A2C005A68BB69DB431F4913404B603B685B68DA
:101A3C0003F48033002B06D01A4B1A681949BB6982
:101A4C0013430B6006E0174B1A68BB69DB4315495F
:101A5C0013400B607B6A01337B623B681A687B6ABC
:101A6C0022FA03F3002B7FF4AFAE00BF00BF2C377C
:101A7C00BD4680BC704700BF000032100000311022
:101A8C0000002210000021100000121000001110A4
:101A9C00001002400000014000080140000C014011
:101AAC00001001400004014080B485B000AF7860A4
:101ABC000B467B807B689A687B881340002B02D096
:101ACC000123FB7301E00023FB73FB7B18461437E7
:101ADC00BD4680BC704780B483B000AF78600B46C5
:101AEC007B8013467B707B78002B03D07A887B68D5
:101AFC001A6103E07B881A047B681A6100BF0C37FB
:101B0C00BD4680BC704780B485B000AF78600B4692
:101B1C007B807B68DB68FB607A88FB6813401A0467
:101B2C00FB68D9437B880B401A437B681A6100BF62
:101B3C001437BD4680BC704780B586B000AF786066
:101B4C007B68002B01D101236CE27B681B6803F0DE
:101B5C000103002B00F08780924B5B6803F00C03B1
:101B6C00042B0CD08F4B5B6803F00C03082B12D1A9
:101B7C008C4B5B6803F48033B3F5803F0BD1894BFE
:101B8C001B6803F40033002B6CD07B685B68002B64
:101B9C0068D1012346E27B685B68B3F5803F06D1D0
:101BAC00804B1B687F4A43F4803313602EE07B68C4
:101BBC005B68002B0CD17B4B1B687A4A23F4803377
:101BCC001360784B1B68774A23F4802313601DE065
:101BDC007B685B68B3F5A02F0CD1724B1B68714A04
:101BEC0043F4802313606F4B1B686E4A43F48033BD
:101BFC0013600BE06B4B1B686A4A23F48033136051
:101C0C00684B1B68674A23F4802313607B685B680E
:101C1C00002B13D0FFF7B6FC386108E0FFF7B2FCDD
:101C2C0002463B69D31A642B01D90323FAE15D4BBD
:101C3C001B6803F40033002BF0D014E0FFF7A2FC78
:101C4C00386108E0FFF79EFC02463B69D31A642B0F
:101C5C0001D90323E6E1534B1B6803F40033002B3B
:101C6C00F0D100E000BF7B681B6803F00203002B7F
:101C7C0063D04C4B5B6803F00C03002B0BD0494B2F
:101C8C005B6803F00C03082B1CD1464B5B6803F418
:101C9C008033002B16D1434B1B6803F00203002B3F
:101CAC0005D07B681B69012B01D00123BAE13D4BA8
:101CBC001B6823F0F8027B685B69DB00394913432E
:101CCC000B603AE07B681B69002B20D0364B01225D
:101CDC001A60FFF757FC386108E0FFF753FC024627
:101CEC003B69D31A022B01D903239BE12D4B1B68B3
:101CFC0003F00203002BF0D02A4B1B6823F0F802F0
:101D0C007B685B69DB00274913430B6015E0264BAE
:101D1C0000221A60FFF736FC386108E0FFF732FC4E
:101D2C0002463B69D31A022B01D903237AE11D4BDE
:101D3C001B6803F00203002BF0D17B681B6803F0D7
:101D4C000803002B3AD07B689B69002B19D0174BEA
:101D5C0001221A60FFF716FC386108E0FFF712FC4D
:101D6C0002463B69D31A022B01D903235AE10D4BCE
:101D7C005B6A03F00203002BF0D0012000F09AFA0A
:101D8C001CE00A4B00221A60FFF7FCFB38610FE0E5
:101D9C00FFF7F8FB02463B69D31A022B08D9032341
:101DAC0040E100BF00100240000042428004424269
:101DBC009E4B5B6A03F00203002BE9D17B681B6826
:101DCC0003F00403002B00F0A6800023FB75974B57
:101DDC00DB6903F08053002B0DD1944BDB69934AE4
:101DEC0043F08053D361914BDB6903F08053BB60AC
:101DFC00BB680123FB758E4B1B6803F48073002BAF
:101E0C0018D18B4B1B688A4A43F480731360FFF71D
:101E1C00B9FB386108E0FFF7B5FB02463B69D31A02
:101E2C00642B01D90323FDE0814B1B6803F4807301
:101E3C00002BF0D07B68DB68012B06D17B4B1B6A37
:101E4C007A4A43F0010313622DE07B68DB68002BB8
:101E5C000CD1764B1B6A754A23F001031362734B4A
:101E6C001B6A724A23F0040313621CE07B68DB6874
:101E7C00052B0CD16D4B1B6A6C4A43F004031362A7
:101E8C006A4B1B6A694A43F0010313620BE0674B10
:101E9C001B6A664A23F001031362644B1B6A634A94
:101EAC0023F0040313627B68DB68002B15D0FFF76B
:101EBC0069FB38610AE0FFF765FB02463B69D31A00
:101ECC0041F28832934201D90323ABE0574B1B6A92
:101EDC0003F00203002BEED014E0FFF753FB386144
:101EEC000AE0FFF74FFB02463B69D31A41F28832F6
:101EFC00934201D9032395E04C4B1B6A03F0020378
:101F0C00002BEED1FB7D012B05D1484BDB69474AF9
:101F1C0023F08053D3617B68DB69002B00F0818058
:101F2C00424B5B6803F00C03082B61D07B68DB69C8
:101F3C00022B46D13F4B00221A60FFF723FB38617E
:101F4C0008E0FFF71FFB02463B69D31A022B01D9AD
:101F5C00032367E0354B1B6803F00073002BF0D1B3
:101F6C007B681B6AB3F5803F08D1304B5B6823F468
:101F7C0000327B689B682D4913434B602B4B5B688D
:101F8C0023F474127B68196A7B685B6A0B432749DC
:101F9C0013434B60274B01221A60FFF7F3FA3861A9
:101FAC0008E0FFF7EFFA02463B69D31A022B01D97E
:101FBC00032337E01D4B1B6803F00073002BF0D09C
:101FCC002FE01C4B00221A60FFF7DCFA386108E0A6
:101FDC00FFF7D8FA02463B69D31A022B01D9032327
:101FEC0020E0124B1B6803F00073002BF0D118E0BB
:101FFC007B68DB69012B01D1012313E00B4B5B6880
:10200C00FB60FB6803F480327B681B6A9A4206D142
:10201C00FB6803F470127B685B6A9A4201D001235F
:10202C0000E0002318461837BD4680BD0010024062
:10203C00007000406000424280B584B000AF786010
:10204C0039607B68002B01D10123D0E06A4B1B68FF
:10205C0003F007033A689A4210D9674B1B6823F0C8
:10206C00070265493B6813430B60634B1B6803F025
:10207C0007033A689A4201D00123B8E07B681B68D9
:10208C0003F00203002B20D07B681B6803F00403D1
:10209C00002B05D0594B5B68584A43F4E0635360FE
:1020AC007B681B6803F00803002B05D0534B5B685F
:1020BC00524A43F460535360504B5B6823F0F00278
:1020CC007B689B684D4913434B607B681B6803F02E
:1020DC000103002B40D07B685B68012B07D1474B79
:1020EC001B6803F40033002B15D101237FE07B68C0
:1020FC005B68022B07D1414B1B6803F00073002B6C
:10210C0009D1012373E03D4B1B6803F00203002B44
:10211C0001D101236BE0394B5B6823F003027B6830
:10212C005B68364913434B60FFF72CFAF8600AE002
:10213C00FFF728FA0246FB68D31A41F28832934221
:10214C0001D9032353E02D4B5B6803F00C027B6831
:10215C005B689B009A42EBD1274B1B6803F007038B
:10216C003A689A4210D2244B1B6823F0070222498A
:10217C003B6813430B60204B1B6803F007033A6862
:10218C009A4201D0012332E07B681B6803F0040300
:10219C00002B08D0194B5B6823F4E0627B68DB688A
:1021AC00164913434B607B681B6803F00803002B34
:1021BC0009D0124B5B6823F460527B681B69DB000F
:1021CC000E4913434B6000F021F802460B4B5B6841
:1021DC001B0903F00F030A49CB5C22FA03F3094AEB
:1021EC001360094B1B681846FFF78AF90023184641
:1021FC001037BD4680BD00BF0020024000100240D9
:10220C00242B00083C0000204000002080B487B044
:10221C0000AF0023FB600023BB6000237B61002325
:10222C007B6000233B611E4B5B68FB60FB6803F02B
:10223C000C03042B02D0082B03D027E0194B3B6175
:10224C0027E0FB689B0C03F00F03174AD35C7B6001
:10225C00FB6803F48033002B10D0114B5B685B0CD4
:10226C0003F00103114AD35CBB607B680D4A02FB8F
:10227C0003F2BB68B2FBF3F37B6104E07B680C4AAE
:10228C0002FB03F37B617B693B6102E0054B3B6125
:10229C0000BF3B6918461C37BD4680BC704700BF69
:1022AC000010024000127A00342B0008442B000866
:1022BC0000093D0080B485B000AF78600A4B1B6804
:1022CC000A4AA2FB03235B0A7A6802FB03F3FB6056
:1022DC0000BFFB685A1EFA60002BF9D100BF00BF8B
:1022EC001437BD4680BC70473C000020D34D6210B3
:1022FC0080B582B000AF78607B68002B01D10123E0
:10230C0041E07B6893F83D30DBB2002B06D17B6853
:10231C00002283F83C207868FEF766FF7B68022277
:10232C0083F83D207B681A687B6804331946104695
:10233C0000F056FA7B68012283F846207B68012264
:10234C0083F83E207B68012283F83F207B680122C2
:10235C0083F840207B68012283F841207B680122AE
:10236C0083F842207B68012283F843207B6801229A
:10237C0083F844207B68012283F845207B68012286
:10238C0083F83D20002318460837BD4680BD000069
:10239C0080B485B000AF78607B6893F83D30DBB2D9
:1023AC00012B01D0012335E07B68022283F83D200C
:1023BC007B681B68DA687B681B6842F00102DA6094
:1023CC007B681B68164A934209D07B681B68B3F183
:1023DC00804F04D07B681B68124A934211D17B68F2
:1023EC001B689B6803F00703FB60FB68062B10D08F
:1023FC007B681B681A687B681B6842F001021A60D4
:10240C0007E07B681B681A687B681B6842F0010256
:10241C001A60002318461437BD4680BC704700BFB5
:10242C00002C01400004004080B584B000AF7860FF
:10243C007B681B68DB68FB607B681B681B69BB6087
:10244C00BB6803F00203002B20D0FB6803F00203EF
:10245C00002B1BD07B681B686FF002021A617B6833
:10246C0001221A777B681B689B6903F00303002B1E
:10247C0003D0786800F098F905E0786800F08BF9E3
:10248C00786800F09AF97B6800221A77BB6803F031
:10249C000403002B20D0FB6803F00403002B1BD09B
:1024AC007B681B686FF004021A617B6802221A7742
:1024BC007B681B689B6903F44073002B03D078681E
:1024CC0000F072F905E0786800F065F9786800F0C2
:1024DC0074F97B6800221A77BB6803F00803002BA1
:1024EC0020D0FB6803F00803002B1BD07B681B6813
:1024FC006FF008021A617B6804221A777B681B68EC
:10250C00DB6903F00303002B03D0786800F04CF96F
:10251C0005E0786800F03FF9786800F04EF97B68C8
:10252C0000221A77BB6803F01003002B20D0FB6845
:10253C0003F01003002B1BD07B681B686FF010029C
:10254C001A617B6808221A777B681B68DB6903F4C5
:10255C004073002B03D0786800F026F905E078680A
:10256C0000F019F9786800F028F97B6800221A77D6
:10257C00BB6803F00103002B0CD0FB6803F00103D4
:10258C00002B07D07B681B686FF001021A6178681A
:10259C00FEF760FCBB6803F08003002B0CD0FB68DB
:1025AC0003F08003002B07D07B681B686FF0800260
:1025BC001A61786800F06FFABB6803F04003002BD7
:1025CC000CD0FB6803F04003002B07D07B681B6822
:1025DC006FF040021A61786800F0F8F8BB6803F0FD
:1025EC002003002B0CD0FB6803F02003002B07D03A
:1025FC007B681B686FF020021A61786800F042FA61
:10260C0000BF1037BD4680BD80B584B000AF786088
:10261C0039600023FB737B6893F83C30012B01D1AC
:10262C000223B4E07B68012283F83C207B68022201
:10263C0083F83D207B681B689B68BB60BB6823F0FC
:10264C007703BB60BB6823F47F43BB607B681B686C
:10265C00BA689A603B681B68B3F5005F3ED0B3F56F
:10266C00005F00F28780B3F5805F00F08680B3F5E1
:10267C00805F7FD8702B1AD0702B7BD8602B50D0FA
:10268C00602B77D8502B3CD0502B73D8402B58D084
:10269C00402B6FD8302B64D0302B6BD8202B60D0D4
:1026AC00202B67D8002B5CD0102B5AD062E07B68B3
:1026BC0018683B6899683B685A683B68DB6800F0AF
:1026CC006AF97B681B689B68BB60BB6843F0770347
:1026DC00BB607B681B68BA689A604FE07B681868BF
:1026EC003B6899683B685A683B68DB6800F053F9B3
:1026FC007B681B689A687B681B6842F480429A600E
:10270C003CE07B6818683B6859683B68DB681A4694
:10271C0000F0CAF87B681B685021184600F021F9BC
:10272C002CE07B6818683B6859683B68DB681A4684
:10273C0000F0E8F87B681B686021184600F011F97E
:10274C001CE07B6818683B6859683B68DB681A4674
:10275C0000F0AAF87B681B684021184600F001F9CC
:10276C000CE07B681A683B681B681946104600F041
:10277C00F8F803E00123FB7300E000BF7B68012243
:10278C0083F83D207B68002283F83C20FB7B1846B5
:10279C001037BD4680BD80B483B000AF786000BFF9
:1027AC000C37BD4680BC704780B483B000AF7860F6
:1027BC0000BF0C37BD4680BC704780B483B000AFFF
:1027CC00786000BF0C37BD4680BC704780B483B0C6
:1027DC0000AF786000BF0C37BD4680BC704700006E
:1027EC0080B485B000AF786039607B681B68FB6093
:1027FC007B682B4A934207D07B68B3F1804F03D0A0
:10280C007B68284A934208D1FB6823F07003FB6075
:10281C003B685B68FA681343FB607B68204A934211
:10282C0007D07B68B3F1804F03D07B681D4A93427D
:10283C0008D1FB6823F44073FB603B68DB68FA68E3
:10284C001343FB60FB6823F080023B685B69134316
:10285C00FB607B68FA681A603B689A687B68DA628E
:10286C003B681A687B689A627B680D4A934203D175
:10287C003B681A697B681A637B6801225A617B6822
:10288C001B6903F00103002B05D07B681B6923F047
:10289C0001027B681A6100BF1437BD4680BC7047CB
:1028AC00002C01400004004080B487B000AFF860F9
:1028BC00B9607A60FB681B6A7B61FB681B6A23F05A
:1028CC000102FB681A62FB689B693B613B6923F060
:1028DC00F0033B617B681B013A6913433B617B69E5
:1028EC0023F00A037B617A69BB6813437B61FB6845
:1028FC003A699A61FB687A691A6200BF1C37BD4657
:10290C0080BC704780B487B000AFF860B9607A6063
:10291C00FB681B6A7B61FB681B6A23F01002FB6877
:10292C001A62FB689B693B613B6923F470433B6112
:10293C007B681B033A6913433B617B6923F0A0035B
:10294C007B61BB681B017A6913437B61FB683A6945
:10295C009A61FB687A691A6200BF1C37BD4680BC5D
:10296C00704780B485B000AF786039607B689B6835
:10297C00FB60FB6823F07003FB603A68FB68134351
:10298C0043F00703FB607B68FA689A6000BF14375A
:10299C00BD4680BC704780B487B000AFF860B960AA
:1029AC007A603B60FB689B687B617B6923F47F43A7
:1029BC007B613B681A027B681A43BB6813437A69D4
:1029CC0013437B61FB687A699A6000BF1C37BD4674
:1029DC0080BC704780B485B000AF786039607B688C
:1029EC0093F83C30012B01D1022341E07B6801229A
:1029FC0083F83C207B68022283F83D207B681B68AF
:102A0C005B68FB607B681B689B68BB60FB6823F0A2
:102A1C007003FB603B681B68FA681343FB607B68C0
:102A2C001B68FA685A607B681B68144A934209D089
:102A3C007B681B68B3F1804F04D07B681B68104A1D
:102A4C0093420CD1BB6823F08003BB603B685B688E
:102A5C00BA681343BB607B681B68BA689A607B6872
:102A6C00012283F83D207B68002283F83C20002360
:102A7C0018461437BD4680BC704700BF002C01407F
:102A8C000004004080B483B000AF786000BF0C3706
:102A9C00BD4680BC704780B483B000AF786000BF87
:102AAC000C37BD4680BC704770B500260C4D0D4CE4
:102ABC00641BA410A64209D100F022F800260A4D8E
:102ACC000A4C641BA410A64205D170BD55F8043BFA
:102ADC0098470136EEE755F8043B98470136F2E784
:102AEC00482B0008482B0008482B00084C2B0008EA
:102AFC0003460244934200D1704703F8011BF9E7E7
:102B0C00F8B500BFF8BC08BC9E467047F8B500BFCE
:082B1C00F8BC08BC9E4670479E
:102B24000000000000000000010203040607080979
:102B340002030405060708090A0B0C0D0E0F1010FA
:042B4400010200008A
:042B4800310100084F
:042B4C000D0100086F
:102B5000F40100000100000001000000010000007D
:102B60000100000001000000010000000100000061
:102B70000100000001000000010000000100000051
:102B800001000000FA0000000A00000000127A00B4
:082B900010000000010000002C
:040000050800149546
:00000001FF
